{
  "_format": "hh-sol-artifact-1",
  "contractName": "NFTByHandContract",
  "sourceName": "contracts/NFTByHandContract.sol",
  "abi": [
    {
      "inputs": [],
      "stateMutability": "nonpayable",
      "type": "constructor"
    },
    {
      "anonymous": false,
      "inputs": [
        {
          "indexed": true,
          "internalType": "address",
          "name": "owner",
          "type": "address"
        },
        {
          "indexed": true,
          "internalType": "address",
          "name": "approved",
          "type": "address"
        },
        {
          "indexed": true,
          "internalType": "uint256",
          "name": "tokenId",
          "type": "uint256"
        }
      ],
      "name": "Approval",
      "type": "event"
    },
    {
      "anonymous": false,
      "inputs": [
        {
          "indexed": true,
          "internalType": "address",
          "name": "owner",
          "type": "address"
        },
        {
          "indexed": true,
          "internalType": "address",
          "name": "operator",
          "type": "address"
        },
        {
          "indexed": false,
          "internalType": "bool",
          "name": "approved",
          "type": "bool"
        }
      ],
      "name": "ApprovalForAll",
      "type": "event"
    },
    {
      "anonymous": false,
      "inputs": [
        {
          "indexed": true,
          "internalType": "uint256",
          "name": "tokenId",
          "type": "uint256"
        },
        {
          "indexed": false,
          "internalType": "address",
          "name": "seller",
          "type": "address"
        },
        {
          "indexed": false,
          "internalType": "address",
          "name": "owner",
          "type": "address"
        },
        {
          "indexed": false,
          "internalType": "uint256",
          "name": "price",
          "type": "uint256"
        },
        {
          "indexed": false,
          "internalType": "bool",
          "name": "sold",
          "type": "bool"
        }
      ],
      "name": "MarketItemCreated",
      "type": "event"
    },
    {
      "anonymous": false,
      "inputs": [
        {
          "indexed": true,
          "internalType": "address",
          "name": "from",
          "type": "address"
        },
        {
          "indexed": true,
          "internalType": "address",
          "name": "to",
          "type": "address"
        },
        {
          "indexed": true,
          "internalType": "uint256",
          "name": "tokenId",
          "type": "uint256"
        }
      ],
      "name": "Transfer",
      "type": "event"
    },
    {
      "inputs": [
        {
          "internalType": "address",
          "name": "to",
          "type": "address"
        },
        {
          "internalType": "uint256",
          "name": "tokenId",
          "type": "uint256"
        }
      ],
      "name": "approve",
      "outputs": [],
      "stateMutability": "nonpayable",
      "type": "function"
    },
    {
      "inputs": [
        {
          "internalType": "address",
          "name": "owner",
          "type": "address"
        }
      ],
      "name": "balanceOf",
      "outputs": [
        {
          "internalType": "uint256",
          "name": "",
          "type": "uint256"
        }
      ],
      "stateMutability": "view",
      "type": "function"
    },
    {
      "inputs": [
        {
          "internalType": "uint256",
          "name": "tokenId",
          "type": "uint256"
        }
      ],
      "name": "createMarketSale",
      "outputs": [],
      "stateMutability": "payable",
      "type": "function"
    },
    {
      "inputs": [
        {
          "internalType": "string",
          "name": "tokenURI",
          "type": "string"
        },
        {
          "internalType": "uint256",
          "name": "price",
          "type": "uint256"
        }
      ],
      "name": "createToken",
      "outputs": [
        {
          "internalType": "uint256",
          "name": "",
          "type": "uint256"
        }
      ],
      "stateMutability": "nonpayable",
      "type": "function"
    },
    {
      "inputs": [],
      "name": "fetchItemsListed",
      "outputs": [
        {
          "components": [
            {
              "internalType": "uint256",
              "name": "tokenId",
              "type": "uint256"
            },
            {
              "internalType": "address payable",
              "name": "seller",
              "type": "address"
            },
            {
              "internalType": "address payable",
              "name": "owner",
              "type": "address"
            },
            {
              "internalType": "uint256",
              "name": "price",
              "type": "uint256"
            },
            {
              "internalType": "bool",
              "name": "sold",
              "type": "bool"
            }
          ],
          "internalType": "struct NFTByHandContract.MarketItem[]",
          "name": "",
          "type": "tuple[]"
        }
      ],
      "stateMutability": "view",
      "type": "function"
    },
    {
      "inputs": [],
      "name": "fetchMarketItems",
      "outputs": [
        {
          "components": [
            {
              "internalType": "uint256",
              "name": "tokenId",
              "type": "uint256"
            },
            {
              "internalType": "address payable",
              "name": "seller",
              "type": "address"
            },
            {
              "internalType": "address payable",
              "name": "owner",
              "type": "address"
            },
            {
              "internalType": "uint256",
              "name": "price",
              "type": "uint256"
            },
            {
              "internalType": "bool",
              "name": "sold",
              "type": "bool"
            }
          ],
          "internalType": "struct NFTByHandContract.MarketItem[]",
          "name": "",
          "type": "tuple[]"
        }
      ],
      "stateMutability": "view",
      "type": "function"
    },
    {
      "inputs": [],
      "name": "fetchMyNFTs",
      "outputs": [
        {
          "components": [
            {
              "internalType": "uint256",
              "name": "tokenId",
              "type": "uint256"
            },
            {
              "internalType": "address payable",
              "name": "seller",
              "type": "address"
            },
            {
              "internalType": "address payable",
              "name": "owner",
              "type": "address"
            },
            {
              "internalType": "uint256",
              "name": "price",
              "type": "uint256"
            },
            {
              "internalType": "bool",
              "name": "sold",
              "type": "bool"
            }
          ],
          "internalType": "struct NFTByHandContract.MarketItem[]",
          "name": "",
          "type": "tuple[]"
        }
      ],
      "stateMutability": "view",
      "type": "function"
    },
    {
      "inputs": [
        {
          "internalType": "uint256",
          "name": "tokenId",
          "type": "uint256"
        }
      ],
      "name": "getApproved",
      "outputs": [
        {
          "internalType": "address",
          "name": "",
          "type": "address"
        }
      ],
      "stateMutability": "view",
      "type": "function"
    },
    {
      "inputs": [],
      "name": "getListingPrice",
      "outputs": [
        {
          "internalType": "uint256",
          "name": "",
          "type": "uint256"
        }
      ],
      "stateMutability": "view",
      "type": "function"
    },
    {
      "inputs": [
        {
          "internalType": "address",
          "name": "owner",
          "type": "address"
        },
        {
          "internalType": "address",
          "name": "operator",
          "type": "address"
        }
      ],
      "name": "isApprovedForAll",
      "outputs": [
        {
          "internalType": "bool",
          "name": "",
          "type": "bool"
        }
      ],
      "stateMutability": "view",
      "type": "function"
    },
    {
      "inputs": [],
      "name": "name",
      "outputs": [
        {
          "internalType": "string",
          "name": "",
          "type": "string"
        }
      ],
      "stateMutability": "view",
      "type": "function"
    },
    {
      "inputs": [
        {
          "internalType": "uint256",
          "name": "tokenId",
          "type": "uint256"
        }
      ],
      "name": "ownerOf",
      "outputs": [
        {
          "internalType": "address",
          "name": "",
          "type": "address"
        }
      ],
      "stateMutability": "view",
      "type": "function"
    },
    {
      "inputs": [
        {
          "internalType": "uint256",
          "name": "tokenId",
          "type": "uint256"
        },
        {
          "internalType": "uint256",
          "name": "price",
          "type": "uint256"
        }
      ],
      "name": "resellToken",
      "outputs": [],
      "stateMutability": "nonpayable",
      "type": "function"
    },
    {
      "inputs": [
        {
          "internalType": "address",
          "name": "from",
          "type": "address"
        },
        {
          "internalType": "address",
          "name": "to",
          "type": "address"
        },
        {
          "internalType": "uint256",
          "name": "tokenId",
          "type": "uint256"
        }
      ],
      "name": "safeTransferFrom",
      "outputs": [],
      "stateMutability": "nonpayable",
      "type": "function"
    },
    {
      "inputs": [
        {
          "internalType": "address",
          "name": "from",
          "type": "address"
        },
        {
          "internalType": "address",
          "name": "to",
          "type": "address"
        },
        {
          "internalType": "uint256",
          "name": "tokenId",
          "type": "uint256"
        },
        {
          "internalType": "bytes",
          "name": "data",
          "type": "bytes"
        }
      ],
      "name": "safeTransferFrom",
      "outputs": [],
      "stateMutability": "nonpayable",
      "type": "function"
    },
    {
      "inputs": [
        {
          "internalType": "address",
          "name": "operator",
          "type": "address"
        },
        {
          "internalType": "bool",
          "name": "approved",
          "type": "bool"
        }
      ],
      "name": "setApprovalForAll",
      "outputs": [],
      "stateMutability": "nonpayable",
      "type": "function"
    },
    {
      "inputs": [
        {
          "internalType": "bytes4",
          "name": "interfaceId",
          "type": "bytes4"
        }
      ],
      "name": "supportsInterface",
      "outputs": [
        {
          "internalType": "bool",
          "name": "",
          "type": "bool"
        }
      ],
      "stateMutability": "view",
      "type": "function"
    },
    {
      "inputs": [],
      "name": "symbol",
      "outputs": [
        {
          "internalType": "string",
          "name": "",
          "type": "string"
        }
      ],
      "stateMutability": "view",
      "type": "function"
    },
    {
      "inputs": [
        {
          "internalType": "uint256",
          "name": "tokenId",
          "type": "uint256"
        }
      ],
      "name": "tokenURI",
      "outputs": [
        {
          "internalType": "string",
          "name": "",
          "type": "string"
        }
      ],
      "stateMutability": "view",
      "type": "function"
    },
    {
      "inputs": [
        {
          "internalType": "address",
          "name": "from",
          "type": "address"
        },
        {
          "internalType": "address",
          "name": "to",
          "type": "address"
        },
        {
          "internalType": "uint256",
          "name": "tokenId",
          "type": "uint256"
        }
      ],
      "name": "transferFrom",
      "outputs": [],
      "stateMutability": "nonpayable",
      "type": "function"
    },
    {
      "inputs": [
        {
          "internalType": "uint256",
          "name": "_listingPrice",
          "type": "uint256"
        }
      ],
      "name": "updateListingPrice",
      "outputs": [],
      "stateMutability": "payable",
      "type": "function"
    }
  ],
  "bytecode": "0x60806040526658d15e176280006009553480156200001c57600080fd5b506040518060400160405280600b81526020016a13919508189e4812185b9960aa1b8152506040518060400160405280600581526020016409c8ca884960db1b81525081600090816200007091906200013f565b5060016200007f82826200013f565b5050600a80546001600160a01b03191633179055506200020b565b634e487b7160e01b600052604160045260246000fd5b600181811c90821680620000c557607f821691505b602082108103620000e657634e487b7160e01b600052602260045260246000fd5b50919050565b601f8211156200013a57600081815260208120601f850160051c81016020861015620001155750805b601f850160051c820191505b81811015620001365782815560010162000121565b5050505b505050565b81516001600160401b038111156200015b576200015b6200009a565b62000173816200016c8454620000b0565b84620000ec565b602080601f831160018114620001ab5760008415620001925750858301515b600019600386901b1c1916600185901b17855562000136565b600085815260208120601f198616915b82811015620001dc57888601518255948401946001909101908401620001bb565b5085821015620001fb5787850151600019600388901b60f8161c191681555b5050505050600190811b01905550565b612486806200021b6000396000f3fe60806040526004361061016a5760003560e01c80636352211e116100cb578063ae677aa31161007f578063c87b56dd11610059578063c87b56dd146103a6578063e219fc75146103c6578063e985e9c5146103e657600080fd5b8063ae677aa314610360578063b88d4fde14610373578063be9af5361461039357600080fd5b806372b3b620116100b057806372b3b6201461030b57806395d89b411461032b578063a22cb4651461034057600080fd5b80636352211e146102cb57806370a08231146102eb57600080fd5b806312e855851161012257806323b872dd1161010757806323b872dd1461027657806342842e0e1461029657806345f8fa80146102b657600080fd5b806312e8558514610242578063202e37401461026157600080fd5b8063081812fc11610153578063081812fc146101c6578063095ea7b3146101fe5780630f08efe01461022057600080fd5b806301ffc9a71461016f57806306fdde03146101a4575b600080fd5b34801561017b57600080fd5b5061018f61018a366004611e71565b61042f565b60405190151581526020015b60405180910390f35b3480156101b057600080fd5b506101b96104cc565b60405161019b9190611ede565b3480156101d257600080fd5b506101e66101e1366004611ef1565b61055e565b6040516001600160a01b03909116815260200161019b565b34801561020a57600080fd5b5061021e610219366004611f26565b610585565b005b34801561022c57600080fd5b506102356106bb565b60405161019b9190611f50565b34801561024e57600080fd5b506009545b60405190815260200161019b565b34801561026d57600080fd5b50610235610852565b34801561028257600080fd5b5061021e610291366004611fcc565b610a26565b3480156102a257600080fd5b5061021e6102b1366004611fcc565b610a9d565b3480156102c257600080fd5b50610235610ab8565b3480156102d757600080fd5b506101e66102e6366004611ef1565b610c8c565b3480156102f757600080fd5b50610253610306366004612008565b610cf1565b34801561031757600080fd5b506102536103263660046120af565b610d8b565b34801561033757600080fd5b506101b9610dcd565b34801561034c57600080fd5b5061021e61035b366004612108565b610ddc565b61021e61036e366004611ef1565b610deb565b34801561037f57600080fd5b5061021e61038e366004612144565b610e70565b61021e6103a1366004611ef1565b610eee565b3480156103b257600080fd5b506101b96103c1366004611ef1565b611016565b3480156103d257600080fd5b5061021e6103e13660046121c0565b611126565b3480156103f257600080fd5b5061018f6104013660046121e2565b6001600160a01b03918216600090815260056020908152604080832093909416825291909152205460ff1690565b60006001600160e01b031982167f80ac58cd00000000000000000000000000000000000000000000000000000000148061049257506001600160e01b031982167f5b5e139f00000000000000000000000000000000000000000000000000000000145b806104c657507f01ffc9a7000000000000000000000000000000000000000000000000000000006001600160e01b03198316145b92915050565b6060600080546104db90612215565b80601f016020809104026020016040519081016040528092919081815260200182805461050790612215565b80156105545780601f1061052957610100808354040283529160200191610554565b820191906000526020600020905b81548152906001019060200180831161053757829003601f168201915b5050505050905090565b600061056982611210565b506000908152600460205260409020546001600160a01b031690565b600061059082610c8c565b9050806001600160a01b0316836001600160a01b03160361061e5760405162461bcd60e51b815260206004820152602160248201527f4552433732313a20617070726f76616c20746f2063757272656e74206f776e6560448201527f720000000000000000000000000000000000000000000000000000000000000060648201526084015b60405180910390fd5b336001600160a01b038216148061063a575061063a8133610401565b6106ac5760405162461bcd60e51b815260206004820152603d60248201527f4552433732313a20617070726f76652063616c6c6572206973206e6f7420746f60448201527f6b656e206f776e6572206f7220617070726f76656420666f7220616c6c0000006064820152608401610615565b6106b68383611277565b505050565b606060006106c860075490565b905060006106d560085490565b6007546106e29190612265565b90506000808267ffffffffffffffff81111561070057610700612023565b60405190808252806020026020018201604052801561075957816020015b6040805160a08101825260008082526020808301829052928201819052606082018190526080820152825260001990920191018161071e5790505b50905060005b848110156108495730600b6000610777846001612278565b81526020810191909152604001600020600201546001600160a01b0316036108375760006107a6826001612278565b6000818152600b6020908152604091829020825160a0810184528154815260018201546001600160a01b039081169382019390935260028201549092169282019290925260038201546060820152600482015460ff16151560808201528551929350909185908790811061081c5761081c61228b565b6020908102919091010152610832600186612278565b945050505b80610841816122a1565b91505061075f565b50949350505050565b6060600061085f60075490565b905060008060005b838110156108c15733600b600061087f846001612278565b81526020810191909152604001600020600201546001600160a01b0316036108af576108ac600184612278565b92505b806108b9816122a1565b915050610867565b5060008267ffffffffffffffff8111156108dd576108dd612023565b60405190808252806020026020018201604052801561093657816020015b6040805160a0810182526000808252602080830182905292820181905260608201819052608082015282526000199092019101816108fb5790505b50905060005b848110156108495733600b6000610954846001612278565b81526020810191909152604001600020600201546001600160a01b031603610a14576000610983826001612278565b6000818152600b6020908152604091829020825160a0810184528154815260018201546001600160a01b039081169382019390935260028201549092169282019290925260038201546060820152600482015460ff1615156080820152855192935090918590879081106109f9576109f961228b565b6020908102919091010152610a0f600186612278565b945050505b80610a1e816122a1565b91505061093c565b610a3033826112e5565b610a925760405162461bcd60e51b815260206004820152602d60248201527f4552433732313a2063616c6c6572206973206e6f7420746f6b656e206f776e6560448201526c1c881bdc88185c1c1c9bdd9959609a1b6064820152608401610615565b6106b6838383611363565b6106b683838360405180602001604052806000815250610e70565b60606000610ac560075490565b905060008060005b83811015610b275733600b6000610ae5846001612278565b81526020810191909152604001600020600101546001600160a01b031603610b1557610b12600184612278565b92505b80610b1f816122a1565b915050610acd565b5060008267ffffffffffffffff811115610b4357610b43612023565b604051908082528060200260200182016040528015610b9c57816020015b6040805160a081018252600080825260208083018290529282018190526060820181905260808201528252600019909201910181610b615790505b50905060005b848110156108495733600b6000610bba846001612278565b81526020810191909152604001600020600101546001600160a01b031603610c7a576000610be9826001612278565b6000818152600b6020908152604091829020825160a0810184528154815260018201546001600160a01b039081169382019390935260028201549092169282019290925260038201546060820152600482015460ff161515608082015285519293509091859087908110610c5f57610c5f61228b565b6020908102919091010152610c75600186612278565b945050505b80610c84816122a1565b915050610ba2565b6000818152600260205260408120546001600160a01b0316806104c65760405162461bcd60e51b815260206004820152601860248201527f4552433732313a20696e76616c696420746f6b656e20494400000000000000006044820152606401610615565b60006001600160a01b038216610d6f5760405162461bcd60e51b815260206004820152602960248201527f4552433732313a2061646472657373207a65726f206973206e6f74206120766160448201527f6c6964206f776e657200000000000000000000000000000000000000000000006064820152608401610615565b506001600160a01b031660009081526003602052604090205490565b6000610d9b600780546001019055565b6000610da660075490565b9050610db23382611569565b610dbc8185611702565b610dc681846117a4565b9392505050565b6060600180546104db90612215565b610de73383836118d9565b5050565b600a546001600160a01b03163314610e6b5760405162461bcd60e51b815260206004820152603060248201527f4f6e6c79206d61726b6574706c616365206f776e65722063616e20757064617460448201527f65206c697374696e672070726963652e000000000000000000000000000000006064820152608401610615565b600955565b610e7a33836112e5565b610edc5760405162461bcd60e51b815260206004820152602d60248201527f4552433732313a2063616c6c6572206973206e6f7420746f6b656e206f776e6560448201526c1c881bdc88185c1c1c9bdd9959609a1b6064820152608401610615565b610ee8848484846119a7565b50505050565b6000818152600b6020526040902060038101546001909101546001600160a01b0316348214610f87576040805162461bcd60e51b81526020600482015260248101919091527f506c65617365207375626d6974207468652061736b696e67207072696365206960448201527f6e206f7264657220746f20636f6d706c657465207468652070757263686173656064820152608401610615565b6000838152600b602052604090206002810180546001600160a01b0319908116331790915560048201805460ff1916600190811790915590910180549091169055610fd6600880546001019055565b610fe1303385611363565b6040516001600160a01b038216903480156108fc02916000818181858888f19350505050158015610ee8573d6000803e3d6000fd5b606061102182611210565b6000828152600660205260408120805461103a90612215565b80601f016020809104026020016040519081016040528092919081815260200182805461106690612215565b80156110b35780601f10611088576101008083540402835291602001916110b3565b820191906000526020600020905b81548152906001019060200180831161109657829003601f168201915b5050505050905060006110d160408051602081019091526000815290565b905080516000036110e3575092915050565b8151156111155780826040516020016110fd9291906122ba565b60405160208183030381529060405292505050919050565b61111e84611a30565b949350505050565b6000828152600b60205260409020600201546001600160a01b031633146111b55760405162461bcd60e51b815260206004820152602a60248201527f4f6e6c79206974656d206f776e65722063616e20706572666f726d207468697360448201527f206f7065726174696f6e000000000000000000000000000000000000000000006064820152608401610615565b6000828152600b6020526040902060048101805460ff19169055600381018290556001810180546001600160a01b0319908116331790915560029091018054909116301790556112056008611aa3565b610de7333084611363565b6000818152600260205260409020546001600160a01b03166112745760405162461bcd60e51b815260206004820152601860248201527f4552433732313a20696e76616c696420746f6b656e20494400000000000000006044820152606401610615565b50565b600081815260046020526040902080546001600160a01b0319166001600160a01b03841690811790915581906112ac82610c8c565b6001600160a01b03167f8c5be1e5ebec7d5bd14f71427d1e84f3dd0314c0f7b2291e5b200ac8c7c3b92560405160405180910390a45050565b6000806112f183610c8c565b9050806001600160a01b0316846001600160a01b0316148061133857506001600160a01b0380821660009081526005602090815260408083209388168352929052205460ff165b8061111e5750836001600160a01b03166113518461055e565b6001600160a01b031614949350505050565b826001600160a01b031661137682610c8c565b6001600160a01b0316146113da5760405162461bcd60e51b815260206004820152602560248201527f4552433732313a207472616e736665722066726f6d20696e636f72726563742060448201526437bbb732b960d91b6064820152608401610615565b6001600160a01b0382166114555760405162461bcd60e51b8152602060048201526024808201527f4552433732313a207472616e7366657220746f20746865207a65726f2061646460448201527f72657373000000000000000000000000000000000000000000000000000000006064820152608401610615565b6114628383836001611afa565b826001600160a01b031661147582610c8c565b6001600160a01b0316146114d95760405162461bcd60e51b815260206004820152602560248201527f4552433732313a207472616e736665722066726f6d20696e636f72726563742060448201526437bbb732b960d91b6064820152608401610615565b600081815260046020908152604080832080546001600160a01b03199081169091556001600160a01b0387811680865260038552838620805460001901905590871680865283862080546001019055868652600290945282852080549092168417909155905184937fddf252ad1be2c89b69c2b068fc378daa952ba7f163c4a11628f55a4df523b3ef91a4505050565b6001600160a01b0382166115bf5760405162461bcd60e51b815260206004820181905260248201527f4552433732313a206d696e7420746f20746865207a65726f20616464726573736044820152606401610615565b6000818152600260205260409020546001600160a01b0316156116245760405162461bcd60e51b815260206004820152601c60248201527f4552433732313a20746f6b656e20616c7265616479206d696e746564000000006044820152606401610615565b611632600083836001611afa565b6000818152600260205260409020546001600160a01b0316156116975760405162461bcd60e51b815260206004820152601c60248201527f4552433732313a20746f6b656e20616c7265616479206d696e746564000000006044820152606401610615565b6001600160a01b038216600081815260036020908152604080832080546001019055848352600290915280822080546001600160a01b0319168417905551839291907fddf252ad1be2c89b69c2b068fc378daa952ba7f163c4a11628f55a4df523b3ef908290a45050565b6000828152600260205260409020546001600160a01b031661178c5760405162461bcd60e51b815260206004820152602e60248201527f45524337323155524953746f726167653a2055524920736574206f66206e6f6e60448201527f6578697374656e7420746f6b656e0000000000000000000000000000000000006064820152608401610615565b60008281526006602052604090206106b68282612337565b600081116117f45760405162461bcd60e51b815260206004820152601c60248201527f5072696365206d757374206265206174206c65617374203120776569000000006044820152606401610615565b6040805160a08101825283815233602080830182815230848601818152606086018881526000608088018181528b8252600b909652979097209551865591516001860180546001600160a01b03199081166001600160a01b0393841617909155925160028701805490941691161790915593516003840155516004909201805460ff19169215159290921790915561188c9184611363565b604080513381523060208201529081018290526000606082015282907fb640004f1d14576d0c209e240cad0410e0d8c0c33a09375861fbadae2588a98d9060800160405180910390a25050565b816001600160a01b0316836001600160a01b03160361193a5760405162461bcd60e51b815260206004820152601960248201527f4552433732313a20617070726f766520746f2063616c6c6572000000000000006044820152606401610615565b6001600160a01b03838116600081815260056020908152604080832094871680845294825291829020805460ff191686151590811790915591519182527f17307eab39ab6107e8899845ad3d59bd9653f200f220920489ca2b5937696c31910160405180910390a3505050565b6119b2848484611363565b6119be84848484611b82565b610ee85760405162461bcd60e51b815260206004820152603260248201527f4552433732313a207472616e7366657220746f206e6f6e20455243373231526560448201527f63656976657220696d706c656d656e74657200000000000000000000000000006064820152608401610615565b6060611a3b82611210565b6000611a5260408051602081019091526000815290565b90506000815111611a725760405180602001604052806000815250610dc6565b80611a7c84611cd9565b604051602001611a8d9291906122ba565b6040516020818303038152906040529392505050565b805480611af25760405162461bcd60e51b815260206004820152601b60248201527f436f756e7465723a2064656372656d656e74206f766572666c6f7700000000006044820152606401610615565b600019019055565b6001811115610ee8576001600160a01b03841615611b40576001600160a01b03841660009081526003602052604081208054839290611b3a908490612265565b90915550505b6001600160a01b03831615610ee8576001600160a01b03831660009081526003602052604081208054839290611b77908490612278565b909155505050505050565b60006001600160a01b0384163b15611cce57604051630a85bd0160e11b81526001600160a01b0385169063150b7a0290611bc69033908990889088906004016123f7565b6020604051808303816000875af1925050508015611c01575060408051601f3d908101601f19168201909252611bfe91810190612433565b60015b611cb4573d808015611c2f576040519150601f19603f3d011682016040523d82523d6000602084013e611c34565b606091505b508051600003611cac5760405162461bcd60e51b815260206004820152603260248201527f4552433732313a207472616e7366657220746f206e6f6e20455243373231526560448201527f63656976657220696d706c656d656e74657200000000000000000000000000006064820152608401610615565b805181602001fd5b6001600160e01b031916630a85bd0160e11b14905061111e565b506001949350505050565b60606000611ce683611d79565b600101905060008167ffffffffffffffff811115611d0657611d06612023565b6040519080825280601f01601f191660200182016040528015611d30576020820181803683370190505b5090508181016020015b600019017f3031323334353637383961626364656600000000000000000000000000000000600a86061a8153600a8504945084611d3a57509392505050565b6000807a184f03e93ff9f4daa797ed6e38ed64bf6a1f0100000000000000008310611dc2577a184f03e93ff9f4daa797ed6e38ed64bf6a1f010000000000000000830492506040015b6d04ee2d6d415b85acef81000000008310611dee576d04ee2d6d415b85acef8100000000830492506020015b662386f26fc100008310611e0c57662386f26fc10000830492506010015b6305f5e1008310611e24576305f5e100830492506008015b6127108310611e3857612710830492506004015b60648310611e4a576064830492506002015b600a83106104c65760010192915050565b6001600160e01b03198116811461127457600080fd5b600060208284031215611e8357600080fd5b8135610dc681611e5b565b60005b83811015611ea9578181015183820152602001611e91565b50506000910152565b60008151808452611eca816020860160208601611e8e565b601f01601f19169290920160200192915050565b602081526000610dc66020830184611eb2565b600060208284031215611f0357600080fd5b5035919050565b80356001600160a01b0381168114611f2157600080fd5b919050565b60008060408385031215611f3957600080fd5b611f4283611f0a565b946020939093013593505050565b602080825282518282018190526000919060409081850190868401855b82811015611fbf57815180518552868101516001600160a01b03908116888701528682015116868601526060808201519086015260809081015115159085015260a09093019290850190600101611f6d565b5091979650505050505050565b600080600060608486031215611fe157600080fd5b611fea84611f0a565b9250611ff860208501611f0a565b9150604084013590509250925092565b60006020828403121561201a57600080fd5b610dc682611f0a565b634e487b7160e01b600052604160045260246000fd5b600067ffffffffffffffff8084111561205457612054612023565b604051601f8501601f19908116603f0116810190828211818310171561207c5761207c612023565b8160405280935085815286868601111561209557600080fd5b858560208301376000602087830101525050509392505050565b600080604083850312156120c257600080fd5b823567ffffffffffffffff8111156120d957600080fd5b8301601f810185136120ea57600080fd5b6120f985823560208401612039565b95602094909401359450505050565b6000806040838503121561211b57600080fd5b61212483611f0a565b91506020830135801515811461213957600080fd5b809150509250929050565b6000806000806080858703121561215a57600080fd5b61216385611f0a565b935061217160208601611f0a565b925060408501359150606085013567ffffffffffffffff81111561219457600080fd5b8501601f810187136121a557600080fd5b6121b487823560208401612039565b91505092959194509250565b600080604083850312156121d357600080fd5b50508035926020909101359150565b600080604083850312156121f557600080fd5b6121fe83611f0a565b915061220c60208401611f0a565b90509250929050565b600181811c9082168061222957607f821691505b60208210810361224957634e487b7160e01b600052602260045260246000fd5b50919050565b634e487b7160e01b600052601160045260246000fd5b818103818111156104c6576104c661224f565b808201808211156104c6576104c661224f565b634e487b7160e01b600052603260045260246000fd5b6000600182016122b3576122b361224f565b5060010190565b600083516122cc818460208801611e8e565b8351908301906122e0818360208801611e8e565b01949350505050565b601f8211156106b657600081815260208120601f850160051c810160208610156123105750805b601f850160051c820191505b8181101561232f5782815560010161231c565b505050505050565b815167ffffffffffffffff81111561235157612351612023565b6123658161235f8454612215565b846122e9565b602080601f83116001811461239a57600084156123825750858301515b600019600386901b1c1916600185901b17855561232f565b600085815260208120601f198616915b828110156123c9578886015182559484019460019091019084016123aa565b50858210156123e75787850151600019600388901b60f8161c191681555b5050505050600190811b01905550565b60006001600160a01b038087168352808616602084015250836040830152608060608301526124296080830184611eb2565b9695505050505050565b60006020828403121561244557600080fd5b8151610dc681611e5b56fea26469706673582212207ab6c9d4727e9e20690311b1811b56150b5c92588be32b1f589161c2c85ff18064736f6c63430008110033",
  "linkReferences": {},
  "deployedLinkReferences": {}
}