{
  "_format": "hh-sol-artifact-1",
  "contractName": "NFTByHandContract",
  "sourceName": "contracts/NFTByHandContract.sol",
  "abi": [
    {
      "inputs": [],
      "stateMutability": "nonpayable",
      "type": "constructor"
    },
    {
      "anonymous": false,
      "inputs": [
        {
          "indexed": true,
          "internalType": "address",
          "name": "owner",
          "type": "address"
        },
        {
          "indexed": true,
          "internalType": "address",
          "name": "approved",
          "type": "address"
        },
        {
          "indexed": true,
          "internalType": "uint256",
          "name": "tokenId",
          "type": "uint256"
        }
      ],
      "name": "Approval",
      "type": "event"
    },
    {
      "anonymous": false,
      "inputs": [
        {
          "indexed": true,
          "internalType": "address",
          "name": "owner",
          "type": "address"
        },
        {
          "indexed": true,
          "internalType": "address",
          "name": "operator",
          "type": "address"
        },
        {
          "indexed": false,
          "internalType": "bool",
          "name": "approved",
          "type": "bool"
        }
      ],
      "name": "ApprovalForAll",
      "type": "event"
    },
    {
      "anonymous": false,
      "inputs": [
        {
          "indexed": true,
          "internalType": "uint256",
          "name": "tokenId",
          "type": "uint256"
        },
        {
          "indexed": false,
          "internalType": "string",
          "name": "tokenURI",
          "type": "string"
        },
        {
          "indexed": false,
          "internalType": "address",
          "name": "seller",
          "type": "address"
        },
        {
          "indexed": false,
          "internalType": "address",
          "name": "owner",
          "type": "address"
        },
        {
          "indexed": false,
          "internalType": "uint256",
          "name": "price",
          "type": "uint256"
        },
        {
          "indexed": false,
          "internalType": "bool",
          "name": "sold",
          "type": "bool"
        }
      ],
      "name": "MarketItemCreated",
      "type": "event"
    },
    {
      "anonymous": false,
      "inputs": [
        {
          "indexed": true,
          "internalType": "address",
          "name": "from",
          "type": "address"
        },
        {
          "indexed": true,
          "internalType": "address",
          "name": "to",
          "type": "address"
        },
        {
          "indexed": true,
          "internalType": "uint256",
          "name": "tokenId",
          "type": "uint256"
        }
      ],
      "name": "Transfer",
      "type": "event"
    },
    {
      "inputs": [
        {
          "internalType": "address",
          "name": "to",
          "type": "address"
        },
        {
          "internalType": "uint256",
          "name": "tokenId",
          "type": "uint256"
        }
      ],
      "name": "approve",
      "outputs": [],
      "stateMutability": "nonpayable",
      "type": "function"
    },
    {
      "inputs": [
        {
          "internalType": "address",
          "name": "owner",
          "type": "address"
        }
      ],
      "name": "balanceOf",
      "outputs": [
        {
          "internalType": "uint256",
          "name": "",
          "type": "uint256"
        }
      ],
      "stateMutability": "view",
      "type": "function"
    },
    {
      "inputs": [
        {
          "internalType": "uint256",
          "name": "tokenId",
          "type": "uint256"
        }
      ],
      "name": "createMarketSale",
      "outputs": [],
      "stateMutability": "payable",
      "type": "function"
    },
    {
      "inputs": [
        {
          "internalType": "string",
          "name": "tokenURI",
          "type": "string"
        },
        {
          "internalType": "uint256",
          "name": "price",
          "type": "uint256"
        }
      ],
      "name": "createToken",
      "outputs": [
        {
          "internalType": "uint256",
          "name": "",
          "type": "uint256"
        }
      ],
      "stateMutability": "nonpayable",
      "type": "function"
    },
    {
      "inputs": [],
      "name": "fetchItemsListed",
      "outputs": [
        {
          "components": [
            {
              "internalType": "uint256",
              "name": "tokenId",
              "type": "uint256"
            },
            {
              "internalType": "string",
              "name": "tokenURI",
              "type": "string"
            },
            {
              "internalType": "address payable",
              "name": "seller",
              "type": "address"
            },
            {
              "internalType": "address payable",
              "name": "owner",
              "type": "address"
            },
            {
              "internalType": "uint256",
              "name": "price",
              "type": "uint256"
            },
            {
              "internalType": "bool",
              "name": "sold",
              "type": "bool"
            }
          ],
          "internalType": "struct NFTByHandContract.MarketItem[]",
          "name": "",
          "type": "tuple[]"
        }
      ],
      "stateMutability": "view",
      "type": "function"
    },
    {
      "inputs": [],
      "name": "fetchMarketItems",
      "outputs": [
        {
          "components": [
            {
              "internalType": "uint256",
              "name": "tokenId",
              "type": "uint256"
            },
            {
              "internalType": "string",
              "name": "tokenURI",
              "type": "string"
            },
            {
              "internalType": "address payable",
              "name": "seller",
              "type": "address"
            },
            {
              "internalType": "address payable",
              "name": "owner",
              "type": "address"
            },
            {
              "internalType": "uint256",
              "name": "price",
              "type": "uint256"
            },
            {
              "internalType": "bool",
              "name": "sold",
              "type": "bool"
            }
          ],
          "internalType": "struct NFTByHandContract.MarketItem[]",
          "name": "",
          "type": "tuple[]"
        }
      ],
      "stateMutability": "view",
      "type": "function"
    },
    {
      "inputs": [],
      "name": "fetchMyNFTs",
      "outputs": [
        {
          "components": [
            {
              "internalType": "uint256",
              "name": "tokenId",
              "type": "uint256"
            },
            {
              "internalType": "string",
              "name": "tokenURI",
              "type": "string"
            },
            {
              "internalType": "address payable",
              "name": "seller",
              "type": "address"
            },
            {
              "internalType": "address payable",
              "name": "owner",
              "type": "address"
            },
            {
              "internalType": "uint256",
              "name": "price",
              "type": "uint256"
            },
            {
              "internalType": "bool",
              "name": "sold",
              "type": "bool"
            }
          ],
          "internalType": "struct NFTByHandContract.MarketItem[]",
          "name": "",
          "type": "tuple[]"
        }
      ],
      "stateMutability": "view",
      "type": "function"
    },
    {
      "inputs": [
        {
          "internalType": "uint256",
          "name": "tokenId",
          "type": "uint256"
        }
      ],
      "name": "getApproved",
      "outputs": [
        {
          "internalType": "address",
          "name": "",
          "type": "address"
        }
      ],
      "stateMutability": "view",
      "type": "function"
    },
    {
      "inputs": [],
      "name": "getListingPrice",
      "outputs": [
        {
          "internalType": "uint256",
          "name": "",
          "type": "uint256"
        }
      ],
      "stateMutability": "view",
      "type": "function"
    },
    {
      "inputs": [
        {
          "internalType": "address",
          "name": "owner",
          "type": "address"
        },
        {
          "internalType": "address",
          "name": "operator",
          "type": "address"
        }
      ],
      "name": "isApprovedForAll",
      "outputs": [
        {
          "internalType": "bool",
          "name": "",
          "type": "bool"
        }
      ],
      "stateMutability": "view",
      "type": "function"
    },
    {
      "inputs": [],
      "name": "name",
      "outputs": [
        {
          "internalType": "string",
          "name": "",
          "type": "string"
        }
      ],
      "stateMutability": "view",
      "type": "function"
    },
    {
      "inputs": [
        {
          "internalType": "uint256",
          "name": "tokenId",
          "type": "uint256"
        }
      ],
      "name": "ownerOf",
      "outputs": [
        {
          "internalType": "address",
          "name": "",
          "type": "address"
        }
      ],
      "stateMutability": "view",
      "type": "function"
    },
    {
      "inputs": [
        {
          "internalType": "uint256",
          "name": "tokenId",
          "type": "uint256"
        },
        {
          "internalType": "uint256",
          "name": "price",
          "type": "uint256"
        }
      ],
      "name": "resellToken",
      "outputs": [],
      "stateMutability": "nonpayable",
      "type": "function"
    },
    {
      "inputs": [
        {
          "internalType": "address",
          "name": "from",
          "type": "address"
        },
        {
          "internalType": "address",
          "name": "to",
          "type": "address"
        },
        {
          "internalType": "uint256",
          "name": "tokenId",
          "type": "uint256"
        }
      ],
      "name": "safeTransferFrom",
      "outputs": [],
      "stateMutability": "nonpayable",
      "type": "function"
    },
    {
      "inputs": [
        {
          "internalType": "address",
          "name": "from",
          "type": "address"
        },
        {
          "internalType": "address",
          "name": "to",
          "type": "address"
        },
        {
          "internalType": "uint256",
          "name": "tokenId",
          "type": "uint256"
        },
        {
          "internalType": "bytes",
          "name": "data",
          "type": "bytes"
        }
      ],
      "name": "safeTransferFrom",
      "outputs": [],
      "stateMutability": "nonpayable",
      "type": "function"
    },
    {
      "inputs": [
        {
          "internalType": "address",
          "name": "operator",
          "type": "address"
        },
        {
          "internalType": "bool",
          "name": "approved",
          "type": "bool"
        }
      ],
      "name": "setApprovalForAll",
      "outputs": [],
      "stateMutability": "nonpayable",
      "type": "function"
    },
    {
      "inputs": [
        {
          "internalType": "bytes4",
          "name": "interfaceId",
          "type": "bytes4"
        }
      ],
      "name": "supportsInterface",
      "outputs": [
        {
          "internalType": "bool",
          "name": "",
          "type": "bool"
        }
      ],
      "stateMutability": "view",
      "type": "function"
    },
    {
      "inputs": [],
      "name": "symbol",
      "outputs": [
        {
          "internalType": "string",
          "name": "",
          "type": "string"
        }
      ],
      "stateMutability": "view",
      "type": "function"
    },
    {
      "inputs": [
        {
          "internalType": "uint256",
          "name": "tokenId",
          "type": "uint256"
        }
      ],
      "name": "tokenURI",
      "outputs": [
        {
          "internalType": "string",
          "name": "",
          "type": "string"
        }
      ],
      "stateMutability": "view",
      "type": "function"
    },
    {
      "inputs": [
        {
          "internalType": "address",
          "name": "from",
          "type": "address"
        },
        {
          "internalType": "address",
          "name": "to",
          "type": "address"
        },
        {
          "internalType": "uint256",
          "name": "tokenId",
          "type": "uint256"
        }
      ],
      "name": "transferFrom",
      "outputs": [],
      "stateMutability": "nonpayable",
      "type": "function"
    },
    {
      "inputs": [
        {
          "internalType": "uint256",
          "name": "_listingPrice",
          "type": "uint256"
        }
      ],
      "name": "updateListingPrice",
      "outputs": [],
      "stateMutability": "payable",
      "type": "function"
    },
    {
      "inputs": [
        {
          "internalType": "uint256",
          "name": "tokenId",
          "type": "uint256"
        },
        {
          "internalType": "uint256",
          "name": "price",
          "type": "uint256"
        }
      ],
      "name": "updatePrice",
      "outputs": [],
      "stateMutability": "nonpayable",
      "type": "function"
    },
    {
      "inputs": [
        {
          "internalType": "uint256",
          "name": "tokenId",
          "type": "uint256"
        },
        {
          "internalType": "string",
          "name": "tokenURI",
          "type": "string"
        }
      ],
      "name": "updateTokenURI",
      "outputs": [],
      "stateMutability": "nonpayable",
      "type": "function"
    }
  ],
  "bytecode": "0x60806040526658d15e176280006009553480156200001c57600080fd5b506040518060400160405280600b81526020016a13919508189e4812185b9960aa1b8152506040518060400160405280600581526020016409c8ca884960db1b81525081600090816200007091906200013f565b5060016200007f82826200013f565b5050600a80546001600160a01b03191633179055506200020b565b634e487b7160e01b600052604160045260246000fd5b600181811c90821680620000c557607f821691505b602082108103620000e657634e487b7160e01b600052602260045260246000fd5b50919050565b601f8211156200013a57600081815260208120601f850160051c81016020861015620001155750805b601f850160051c820191505b81811015620001365782815560010162000121565b5050505b505050565b81516001600160401b038111156200015b576200015b6200009a565b62000173816200016c8454620000b0565b84620000ec565b602080601f831160018114620001ab5760008415620001925750858301515b600019600386901b1c1916600185901b17855562000136565b600085815260208120601f198616915b82811015620001dc57888601518255948401946001909101908401620001bb565b5085821015620001fb5787850151600019600388901b60f8161c191681555b5050505050600190811b01905550565b61291d806200021b6000396000f3fe6080604052600436106101805760003560e01c80636352211e116100d6578063ae677aa31161007f578063c87b56dd11610059578063c87b56dd146103fc578063e219fc751461041c578063e985e9c51461043c57600080fd5b8063ae677aa3146103b6578063b88d4fde146103c9578063be9af536146103e957600080fd5b806382367b2d116100b057806382367b2d1461036157806395d89b4114610381578063a22cb4651461039657600080fd5b80636352211e1461030157806370a082311461032157806372b3b6201461034157600080fd5b806312e855851161013857806323b872dd1161011257806323b872dd146102ac57806342842e0e146102cc57806345f8fa80146102ec57600080fd5b806312e855851461025857806318e97fd114610277578063202e37401461029757600080fd5b8063081812fc11610169578063081812fc146101dc578063095ea7b3146102145780630f08efe01461023657600080fd5b806301ffc9a71461018557806306fdde03146101ba575b600080fd5b34801561019157600080fd5b506101a56101a0366004612240565b610485565b60405190151581526020015b60405180910390f35b3480156101c657600080fd5b506101cf610522565b6040516101b191906122ad565b3480156101e857600080fd5b506101fc6101f73660046122c0565b6105b4565b6040516001600160a01b0390911681526020016101b1565b34801561022057600080fd5b5061023461022f3660046122f5565b6105db565b005b34801561024257600080fd5b5061024b610711565b6040516101b1919061231f565b34801561026457600080fd5b506009545b6040519081526020016101b1565b34801561028357600080fd5b5061023461029236600461247a565b610966565b3480156102a357600080fd5b5061024b610a07565b3480156102b857600080fd5b506102346102c73660046124c1565b610c99565b3480156102d857600080fd5b506102346102e73660046124c1565b610d10565b3480156102f857600080fd5b5061024b610d2b565b34801561030d57600080fd5b506101fc61031c3660046122c0565b610fbd565b34801561032d57600080fd5b5061026961033c3660046124fd565b611022565b34801561034d57600080fd5b5061026961035c366004612518565b6110bc565b34801561036d57600080fd5b5061023461037c36600461255d565b6110ff565b34801561038d57600080fd5b506101cf611190565b3480156103a257600080fd5b506102346103b136600461257f565b61119f565b6102346103c43660046122c0565b6111ae565b3480156103d557600080fd5b506102346103e43660046125bb565b611233565b6102346103f73660046122c0565b6112b1565b34801561040857600080fd5b506101cf6104173660046122c0565b6113d8565b34801561042857600080fd5b5061023461043736600461255d565b6114e8565b34801561044857600080fd5b506101a5610457366004612637565b6001600160a01b03918216600090815260056020908152604080832093909416825291909152205460ff1690565b60006001600160e01b031982167f80ac58cd0000000000000000000000000000000000000000000000000000000014806104e857506001600160e01b031982167f5b5e139f00000000000000000000000000000000000000000000000000000000145b8061051c57507f01ffc9a7000000000000000000000000000000000000000000000000000000006001600160e01b03198316145b92915050565b6060600080546105319061266a565b80601f016020809104026020016040519081016040528092919081815260200182805461055d9061266a565b80156105aa5780601f1061057f576101008083540402835291602001916105aa565b820191906000526020600020905b81548152906001019060200180831161058d57829003601f168201915b5050505050905090565b60006105bf826115bf565b506000908152600460205260409020546001600160a01b031690565b60006105e682610fbd565b9050806001600160a01b0316836001600160a01b0316036106745760405162461bcd60e51b815260206004820152602160248201527f4552433732313a20617070726f76616c20746f2063757272656e74206f776e6560448201527f720000000000000000000000000000000000000000000000000000000000000060648201526084015b60405180910390fd5b336001600160a01b038216148061069057506106908133610457565b6107025760405162461bcd60e51b815260206004820152603d60248201527f4552433732313a20617070726f76652063616c6c6572206973206e6f7420746f60448201527f6b656e206f776e6572206f7220617070726f76656420666f7220616c6c000000606482015260840161066b565b61070c8383611626565b505050565b6060600061071e60075490565b9050600061072b60085490565b60075461073891906126ba565b90506000808267ffffffffffffffff811115610756576107566123ce565b6040519080825280602002602001820160405280156107d457816020015b6107c16040518060c00160405280600081526020016060815260200160006001600160a01b0316815260200160006001600160a01b03168152602001600081526020016000151581525090565b8152602001906001900390816107745790505b50905060005b8481101561095d5730600b60006107f28460016126cd565b81526020810191909152604001600020600301546001600160a01b03160361094b5760006108218260016126cd565b90506000600b60008381526020019081526020016000209050806040518060c0016040529081600082015481526020016001820180546108609061266a565b80601f016020809104026020016040519081016040528092919081815260200182805461088c9061266a565b80156108d95780601f106108ae576101008083540402835291602001916108d9565b820191906000526020600020905b8154815290600101906020018083116108bc57829003601f168201915b505050918352505060028201546001600160a01b03908116602083015260038301541660408201526004820154606082015260059091015460ff1615156080909101528451859087908110610930576109306126e0565b60209081029190910101526109466001866126cd565b945050505b80610955816126f6565b9150506107da565b50949350505050565b6000828152600b60205260409020600301546001600160a01b031633146109e25760405162461bcd60e51b815260206004820152602a60248201527f4f6e6c79206974656d206f776e65722063616e20706572666f726d20746869736044820152691037b832b930ba34b7b760b11b606482015260840161066b565b6109ec8282611694565b6000828152600b6020526040902060010161070c828261275d565b60606000610a1460075490565b905060008060005b83811015610a765733600b6000610a348460016126cd565b81526020810191909152604001600020600301546001600160a01b031603610a6457610a616001846126cd565b92505b80610a6e816126f6565b915050610a1c565b5060008267ffffffffffffffff811115610a9257610a926123ce565b604051908082528060200260200182016040528015610b1057816020015b610afd6040518060c00160405280600081526020016060815260200160006001600160a01b0316815260200160006001600160a01b03168152602001600081526020016000151581525090565b815260200190600190039081610ab05790505b50905060005b8481101561095d5733600b6000610b2e8460016126cd565b81526020810191909152604001600020600301546001600160a01b031603610c87576000610b5d8260016126cd565b90506000600b60008381526020019081526020016000209050806040518060c001604052908160008201548152602001600182018054610b9c9061266a565b80601f0160208091040260200160405190810160405280929190818152602001828054610bc89061266a565b8015610c155780601f10610bea57610100808354040283529160200191610c15565b820191906000526020600020905b815481529060010190602001808311610bf857829003601f168201915b505050918352505060028201546001600160a01b03908116602083015260038301541660408201526004820154606082015260059091015460ff1615156080909101528451859087908110610c6c57610c6c6126e0565b6020908102919091010152610c826001866126cd565b945050505b80610c91816126f6565b915050610b16565b610ca33382611736565b610d055760405162461bcd60e51b815260206004820152602d60248201527f4552433732313a2063616c6c6572206973206e6f7420746f6b656e206f776e6560448201526c1c881bdc88185c1c1c9bdd9959609a1b606482015260840161066b565b61070c8383836117b4565b61070c83838360405180602001604052806000815250611233565b60606000610d3860075490565b905060008060005b83811015610d9a5733600b6000610d588460016126cd565b81526020810191909152604001600020600201546001600160a01b031603610d8857610d856001846126cd565b92505b80610d92816126f6565b915050610d40565b5060008267ffffffffffffffff811115610db657610db66123ce565b604051908082528060200260200182016040528015610e3457816020015b610e216040518060c00160405280600081526020016060815260200160006001600160a01b0316815260200160006001600160a01b03168152602001600081526020016000151581525090565b815260200190600190039081610dd45790505b50905060005b8481101561095d5733600b6000610e528460016126cd565b81526020810191909152604001600020600201546001600160a01b031603610fab576000610e818260016126cd565b90506000600b60008381526020019081526020016000209050806040518060c001604052908160008201548152602001600182018054610ec09061266a565b80601f0160208091040260200160405190810160405280929190818152602001828054610eec9061266a565b8015610f395780601f10610f0e57610100808354040283529160200191610f39565b820191906000526020600020905b815481529060010190602001808311610f1c57829003601f168201915b505050918352505060028201546001600160a01b03908116602083015260038301541660408201526004820154606082015260059091015460ff1615156080909101528451859087908110610f9057610f906126e0565b6020908102919091010152610fa66001866126cd565b945050505b80610fb5816126f6565b915050610e3a565b6000818152600260205260408120546001600160a01b03168061051c5760405162461bcd60e51b815260206004820152601860248201527f4552433732313a20696e76616c696420746f6b656e2049440000000000000000604482015260640161066b565b60006001600160a01b0382166110a05760405162461bcd60e51b815260206004820152602960248201527f4552433732313a2061646472657373207a65726f206973206e6f74206120766160448201527f6c6964206f776e65720000000000000000000000000000000000000000000000606482015260840161066b565b506001600160a01b031660009081526003602052604090205490565b60006110cc600780546001019055565b60006110d760075490565b90506110e333826119ba565b6110ed8185611694565b6110f8818585611b53565b9392505050565b6000828152600b60205260409020600301546001600160a01b0316331461117b5760405162461bcd60e51b815260206004820152602a60248201527f4f6e6c79206974656d206f776e65722063616e20706572666f726d20746869736044820152691037b832b930ba34b7b760b11b606482015260840161066b565b6000918252600b602052604090912060040155565b6060600180546105319061266a565b6111aa338383611ca8565b5050565b600a546001600160a01b0316331461122e5760405162461bcd60e51b815260206004820152603060248201527f4f6e6c79206d61726b6574706c616365206f776e65722063616e20757064617460448201527f65206c697374696e672070726963652e00000000000000000000000000000000606482015260840161066b565b600955565b61123d3383611736565b61129f5760405162461bcd60e51b815260206004820152602d60248201527f4552433732313a2063616c6c6572206973206e6f7420746f6b656e206f776e6560448201526c1c881bdc88185c1c1c9bdd9959609a1b606482015260840161066b565b6112ab84848484611d76565b50505050565b6000818152600b6020526040902060048101546002909101546001600160a01b031634821461134a576040805162461bcd60e51b81526020600482015260248101919091527f506c65617365207375626d6974207468652061736b696e67207072696365206960448201527f6e206f7264657220746f20636f6d706c65746520746865207075726368617365606482015260840161066b565b6000838152600b602052604090206003810180546001600160a01b0319908116331790915560058201805460ff19166001179055600290910180549091169055611398600880546001019055565b6113a33033856117b4565b6040516001600160a01b038216903480156108fc02916000818181858888f193505050501580156112ab573d6000803e3d6000fd5b60606113e3826115bf565b600082815260066020526040812080546113fc9061266a565b80601f01602080910402602001604051908101604052809291908181526020018280546114289061266a565b80156114755780601f1061144a57610100808354040283529160200191611475565b820191906000526020600020905b81548152906001019060200180831161145857829003601f168201915b50505050509050600061149360408051602081019091526000815290565b905080516000036114a5575092915050565b8151156114d75780826040516020016114bf92919061281d565b60405160208183030381529060405292505050919050565b6114e084611dff565b949350505050565b6000828152600b60205260409020600301546001600160a01b031633146115645760405162461bcd60e51b815260206004820152602a60248201527f4f6e6c79206974656d206f776e65722063616e20706572666f726d20746869736044820152691037b832b930ba34b7b760b11b606482015260840161066b565b6000828152600b6020526040902060058101805460ff19169055600481018290556002810180546001600160a01b0319908116331790915560039091018054909116301790556115b46008611e72565b6111aa3330846117b4565b6000818152600260205260409020546001600160a01b03166116235760405162461bcd60e51b815260206004820152601860248201527f4552433732313a20696e76616c696420746f6b656e2049440000000000000000604482015260640161066b565b50565b600081815260046020526040902080546001600160a01b0319166001600160a01b038416908117909155819061165b82610fbd565b6001600160a01b03167f8c5be1e5ebec7d5bd14f71427d1e84f3dd0314c0f7b2291e5b200ac8c7c3b92560405160405180910390a45050565b6000828152600260205260409020546001600160a01b031661171e5760405162461bcd60e51b815260206004820152602e60248201527f45524337323155524953746f726167653a2055524920736574206f66206e6f6e60448201527f6578697374656e7420746f6b656e000000000000000000000000000000000000606482015260840161066b565b600082815260066020526040902061070c828261275d565b60008061174283610fbd565b9050806001600160a01b0316846001600160a01b0316148061178957506001600160a01b0380821660009081526005602090815260408083209388168352929052205460ff165b806114e05750836001600160a01b03166117a2846105b4565b6001600160a01b031614949350505050565b826001600160a01b03166117c782610fbd565b6001600160a01b03161461182b5760405162461bcd60e51b815260206004820152602560248201527f4552433732313a207472616e736665722066726f6d20696e636f72726563742060448201526437bbb732b960d91b606482015260840161066b565b6001600160a01b0382166118a65760405162461bcd60e51b8152602060048201526024808201527f4552433732313a207472616e7366657220746f20746865207a65726f2061646460448201527f7265737300000000000000000000000000000000000000000000000000000000606482015260840161066b565b6118b38383836001611ec9565b826001600160a01b03166118c682610fbd565b6001600160a01b03161461192a5760405162461bcd60e51b815260206004820152602560248201527f4552433732313a207472616e736665722066726f6d20696e636f72726563742060448201526437bbb732b960d91b606482015260840161066b565b600081815260046020908152604080832080546001600160a01b03199081169091556001600160a01b0387811680865260038552838620805460001901905590871680865283862080546001019055868652600290945282852080549092168417909155905184937fddf252ad1be2c89b69c2b068fc378daa952ba7f163c4a11628f55a4df523b3ef91a4505050565b6001600160a01b038216611a105760405162461bcd60e51b815260206004820181905260248201527f4552433732313a206d696e7420746f20746865207a65726f2061646472657373604482015260640161066b565b6000818152600260205260409020546001600160a01b031615611a755760405162461bcd60e51b815260206004820152601c60248201527f4552433732313a20746f6b656e20616c7265616479206d696e74656400000000604482015260640161066b565b611a83600083836001611ec9565b6000818152600260205260409020546001600160a01b031615611ae85760405162461bcd60e51b815260206004820152601c60248201527f4552433732313a20746f6b656e20616c7265616479206d696e74656400000000604482015260640161066b565b6001600160a01b038216600081815260036020908152604080832080546001019055848352600290915280822080546001600160a01b0319168417905551839291907fddf252ad1be2c89b69c2b068fc378daa952ba7f163c4a11628f55a4df523b3ef908290a45050565b60008111611ba35760405162461bcd60e51b815260206004820152601c60248201527f5072696365206d757374206265206174206c6561737420312077656900000000604482015260640161066b565b6040805160c0810182528481526020808201858152338385015230606084015260808301859052600060a08401819052878152600b9092529290208151815591519091906001820190611bf6908261275d565b5060408201516002820180546001600160a01b039283166001600160a01b03199182161790915560608401516003840180549190931691161790556080820151600482015560a0909101516005909101805491151560ff19909216919091179055611c623330856117b4565b827f83ca34d51193f8e4e6741bc3eb5c45078df1cd34040ae31f610e4a12211a2632833330856000604051611c9b95949392919061284c565b60405180910390a2505050565b816001600160a01b0316836001600160a01b031603611d095760405162461bcd60e51b815260206004820152601960248201527f4552433732313a20617070726f766520746f2063616c6c657200000000000000604482015260640161066b565b6001600160a01b03838116600081815260056020908152604080832094871680845294825291829020805460ff191686151590811790915591519182527f17307eab39ab6107e8899845ad3d59bd9653f200f220920489ca2b5937696c31910160405180910390a3505050565b611d818484846117b4565b611d8d84848484611f51565b6112ab5760405162461bcd60e51b815260206004820152603260248201527f4552433732313a207472616e7366657220746f206e6f6e20455243373231526560448201527f63656976657220696d706c656d656e7465720000000000000000000000000000606482015260840161066b565b6060611e0a826115bf565b6000611e2160408051602081019091526000815290565b90506000815111611e4157604051806020016040528060008152506110f8565b80611e4b846120a8565b604051602001611e5c92919061281d565b6040516020818303038152906040529392505050565b805480611ec15760405162461bcd60e51b815260206004820152601b60248201527f436f756e7465723a2064656372656d656e74206f766572666c6f770000000000604482015260640161066b565b600019019055565b60018111156112ab576001600160a01b03841615611f0f576001600160a01b03841660009081526003602052604081208054839290611f099084906126ba565b90915550505b6001600160a01b038316156112ab576001600160a01b03831660009081526003602052604081208054839290611f469084906126cd565b909155505050505050565b60006001600160a01b0384163b1561209d57604051630a85bd0160e11b81526001600160a01b0385169063150b7a0290611f9590339089908890889060040161288e565b6020604051808303816000875af1925050508015611fd0575060408051601f3d908101601f19168201909252611fcd918101906128ca565b60015b612083573d808015611ffe576040519150601f19603f3d011682016040523d82523d6000602084013e612003565b606091505b50805160000361207b5760405162461bcd60e51b815260206004820152603260248201527f4552433732313a207472616e7366657220746f206e6f6e20455243373231526560448201527f63656976657220696d706c656d656e7465720000000000000000000000000000606482015260840161066b565b805181602001fd5b6001600160e01b031916630a85bd0160e11b1490506114e0565b506001949350505050565b606060006120b583612148565b600101905060008167ffffffffffffffff8111156120d5576120d56123ce565b6040519080825280601f01601f1916602001820160405280156120ff576020820181803683370190505b5090508181016020015b600019017f3031323334353637383961626364656600000000000000000000000000000000600a86061a8153600a850494508461210957509392505050565b6000807a184f03e93ff9f4daa797ed6e38ed64bf6a1f0100000000000000008310612191577a184f03e93ff9f4daa797ed6e38ed64bf6a1f010000000000000000830492506040015b6d04ee2d6d415b85acef810000000083106121bd576d04ee2d6d415b85acef8100000000830492506020015b662386f26fc1000083106121db57662386f26fc10000830492506010015b6305f5e10083106121f3576305f5e100830492506008015b612710831061220757612710830492506004015b60648310612219576064830492506002015b600a831061051c5760010192915050565b6001600160e01b03198116811461162357600080fd5b60006020828403121561225257600080fd5b81356110f88161222a565b60005b83811015612278578181015183820152602001612260565b50506000910152565b6000815180845261229981602086016020860161225d565b601f01601f19169290920160200192915050565b6020815260006110f86020830184612281565b6000602082840312156122d257600080fd5b5035919050565b80356001600160a01b03811681146122f057600080fd5b919050565b6000806040838503121561230857600080fd5b612311836122d9565b946020939093013593505050565b60006020808301818452808551808352604092508286019150828160051b87010184880160005b838110156123c057603f19898403018552815160c08151855288820151818a87015261237482870182612281565b838a01516001600160a01b03908116888c0152606080860151909116908801526080808501519088015260a0938401511515939096019290925250509386019390860190600101612346565b509098975050505050505050565b634e487b7160e01b600052604160045260246000fd5b600067ffffffffffffffff808411156123ff576123ff6123ce565b604051601f8501601f19908116603f01168101908282118183101715612427576124276123ce565b8160405280935085815286868601111561244057600080fd5b858560208301376000602087830101525050509392505050565b600082601f83011261246b57600080fd5b6110f8838335602085016123e4565b6000806040838503121561248d57600080fd5b82359150602083013567ffffffffffffffff8111156124ab57600080fd5b6124b78582860161245a565b9150509250929050565b6000806000606084860312156124d657600080fd5b6124df846122d9565b92506124ed602085016122d9565b9150604084013590509250925092565b60006020828403121561250f57600080fd5b6110f8826122d9565b6000806040838503121561252b57600080fd5b823567ffffffffffffffff81111561254257600080fd5b61254e8582860161245a565b95602094909401359450505050565b6000806040838503121561257057600080fd5b50508035926020909101359150565b6000806040838503121561259257600080fd5b61259b836122d9565b9150602083013580151581146125b057600080fd5b809150509250929050565b600080600080608085870312156125d157600080fd5b6125da856122d9565b93506125e8602086016122d9565b925060408501359150606085013567ffffffffffffffff81111561260b57600080fd5b8501601f8101871361261c57600080fd5b61262b878235602084016123e4565b91505092959194509250565b6000806040838503121561264a57600080fd5b612653836122d9565b9150612661602084016122d9565b90509250929050565b600181811c9082168061267e57607f821691505b60208210810361269e57634e487b7160e01b600052602260045260246000fd5b50919050565b634e487b7160e01b600052601160045260246000fd5b8181038181111561051c5761051c6126a4565b8082018082111561051c5761051c6126a4565b634e487b7160e01b600052603260045260246000fd5b600060018201612708576127086126a4565b5060010190565b601f82111561070c57600081815260208120601f850160051c810160208610156127365750805b601f850160051c820191505b8181101561275557828155600101612742565b505050505050565b815167ffffffffffffffff811115612777576127776123ce565b61278b81612785845461266a565b8461270f565b602080601f8311600181146127c057600084156127a85750858301515b600019600386901b1c1916600185901b178555612755565b600085815260208120601f198616915b828110156127ef578886015182559484019460019091019084016127d0565b508582101561280d5787850151600019600388901b60f8161c191681555b5050505050600190811b01905550565b6000835161282f81846020880161225d565b83519083019061284381836020880161225d565b01949350505050565b60a08152600061285f60a0830188612281565b6001600160a01b0396871660208401529490951660408201526060810192909252151560809091015292915050565b60006001600160a01b038087168352808616602084015250836040830152608060608301526128c06080830184612281565b9695505050505050565b6000602082840312156128dc57600080fd5b81516110f88161222a56fea26469706673582212205e230aeb409169e3681992823a0b92b3df3fa7f7872fa22b12f24bfc51da58a764736f6c63430008110033",
  "linkReferences": {},
  "deployedLinkReferences": {}
}