{
  "_format": "hh-sol-artifact-1",
  "contractName": "NFTByHandContract",
  "sourceName": "contracts/NFTByHandContract.sol",
  "abi": [
    {
      "inputs": [],
      "stateMutability": "nonpayable",
      "type": "constructor"
    },
    {
      "anonymous": false,
      "inputs": [
        {
          "indexed": true,
          "internalType": "address",
          "name": "owner",
          "type": "address"
        },
        {
          "indexed": true,
          "internalType": "address",
          "name": "approved",
          "type": "address"
        },
        {
          "indexed": true,
          "internalType": "uint256",
          "name": "tokenId",
          "type": "uint256"
        }
      ],
      "name": "Approval",
      "type": "event"
    },
    {
      "anonymous": false,
      "inputs": [
        {
          "indexed": true,
          "internalType": "address",
          "name": "owner",
          "type": "address"
        },
        {
          "indexed": true,
          "internalType": "address",
          "name": "operator",
          "type": "address"
        },
        {
          "indexed": false,
          "internalType": "bool",
          "name": "approved",
          "type": "bool"
        }
      ],
      "name": "ApprovalForAll",
      "type": "event"
    },
    {
      "anonymous": false,
      "inputs": [
        {
          "indexed": true,
          "internalType": "uint256",
          "name": "tokenId",
          "type": "uint256"
        },
        {
          "indexed": false,
          "internalType": "string",
          "name": "tokenURI",
          "type": "string"
        },
        {
          "indexed": false,
          "internalType": "address",
          "name": "seller",
          "type": "address"
        },
        {
          "indexed": false,
          "internalType": "address",
          "name": "owner",
          "type": "address"
        },
        {
          "indexed": false,
          "internalType": "uint256",
          "name": "price",
          "type": "uint256"
        },
        {
          "indexed": false,
          "internalType": "bool",
          "name": "sold",
          "type": "bool"
        }
      ],
      "name": "MarketItemCreated",
      "type": "event"
    },
    {
      "anonymous": false,
      "inputs": [
        {
          "indexed": true,
          "internalType": "address",
          "name": "from",
          "type": "address"
        },
        {
          "indexed": true,
          "internalType": "address",
          "name": "to",
          "type": "address"
        },
        {
          "indexed": true,
          "internalType": "uint256",
          "name": "tokenId",
          "type": "uint256"
        }
      ],
      "name": "Transfer",
      "type": "event"
    },
    {
      "inputs": [
        {
          "internalType": "address",
          "name": "to",
          "type": "address"
        },
        {
          "internalType": "uint256",
          "name": "tokenId",
          "type": "uint256"
        }
      ],
      "name": "approve",
      "outputs": [],
      "stateMutability": "nonpayable",
      "type": "function"
    },
    {
      "inputs": [
        {
          "internalType": "address",
          "name": "owner",
          "type": "address"
        }
      ],
      "name": "balanceOf",
      "outputs": [
        {
          "internalType": "uint256",
          "name": "",
          "type": "uint256"
        }
      ],
      "stateMutability": "view",
      "type": "function"
    },
    {
      "inputs": [
        {
          "internalType": "uint256",
          "name": "tokenId",
          "type": "uint256"
        }
      ],
      "name": "createMarketSale",
      "outputs": [],
      "stateMutability": "payable",
      "type": "function"
    },
    {
      "inputs": [
        {
          "internalType": "string",
          "name": "tokenURI",
          "type": "string"
        },
        {
          "internalType": "uint256",
          "name": "price",
          "type": "uint256"
        }
      ],
      "name": "createToken",
      "outputs": [
        {
          "internalType": "uint256",
          "name": "",
          "type": "uint256"
        }
      ],
      "stateMutability": "nonpayable",
      "type": "function"
    },
    {
      "inputs": [],
      "name": "fetchItemsListed",
      "outputs": [
        {
          "components": [
            {
              "internalType": "uint256",
              "name": "tokenId",
              "type": "uint256"
            },
            {
              "internalType": "string",
              "name": "tokenURI",
              "type": "string"
            },
            {
              "internalType": "address payable",
              "name": "seller",
              "type": "address"
            },
            {
              "internalType": "address payable",
              "name": "owner",
              "type": "address"
            },
            {
              "internalType": "uint256",
              "name": "price",
              "type": "uint256"
            },
            {
              "internalType": "bool",
              "name": "sold",
              "type": "bool"
            }
          ],
          "internalType": "struct NFTByHandContract.MarketItem[]",
          "name": "",
          "type": "tuple[]"
        }
      ],
      "stateMutability": "view",
      "type": "function"
    },
    {
      "inputs": [],
      "name": "fetchMarketItems",
      "outputs": [
        {
          "components": [
            {
              "internalType": "uint256",
              "name": "tokenId",
              "type": "uint256"
            },
            {
              "internalType": "string",
              "name": "tokenURI",
              "type": "string"
            },
            {
              "internalType": "address payable",
              "name": "seller",
              "type": "address"
            },
            {
              "internalType": "address payable",
              "name": "owner",
              "type": "address"
            },
            {
              "internalType": "uint256",
              "name": "price",
              "type": "uint256"
            },
            {
              "internalType": "bool",
              "name": "sold",
              "type": "bool"
            }
          ],
          "internalType": "struct NFTByHandContract.MarketItem[]",
          "name": "",
          "type": "tuple[]"
        }
      ],
      "stateMutability": "view",
      "type": "function"
    },
    {
      "inputs": [],
      "name": "fetchMyNFTs",
      "outputs": [
        {
          "components": [
            {
              "internalType": "uint256",
              "name": "tokenId",
              "type": "uint256"
            },
            {
              "internalType": "string",
              "name": "tokenURI",
              "type": "string"
            },
            {
              "internalType": "address payable",
              "name": "seller",
              "type": "address"
            },
            {
              "internalType": "address payable",
              "name": "owner",
              "type": "address"
            },
            {
              "internalType": "uint256",
              "name": "price",
              "type": "uint256"
            },
            {
              "internalType": "bool",
              "name": "sold",
              "type": "bool"
            }
          ],
          "internalType": "struct NFTByHandContract.MarketItem[]",
          "name": "",
          "type": "tuple[]"
        }
      ],
      "stateMutability": "view",
      "type": "function"
    },
    {
      "inputs": [
        {
          "internalType": "uint256",
          "name": "tokenId",
          "type": "uint256"
        }
      ],
      "name": "getApproved",
      "outputs": [
        {
          "internalType": "address",
          "name": "",
          "type": "address"
        }
      ],
      "stateMutability": "view",
      "type": "function"
    },
    {
      "inputs": [],
      "name": "getListingPrice",
      "outputs": [
        {
          "internalType": "uint256",
          "name": "",
          "type": "uint256"
        }
      ],
      "stateMutability": "view",
      "type": "function"
    },
    {
      "inputs": [
        {
          "internalType": "address",
          "name": "owner",
          "type": "address"
        },
        {
          "internalType": "address",
          "name": "operator",
          "type": "address"
        }
      ],
      "name": "isApprovedForAll",
      "outputs": [
        {
          "internalType": "bool",
          "name": "",
          "type": "bool"
        }
      ],
      "stateMutability": "view",
      "type": "function"
    },
    {
      "inputs": [],
      "name": "name",
      "outputs": [
        {
          "internalType": "string",
          "name": "",
          "type": "string"
        }
      ],
      "stateMutability": "view",
      "type": "function"
    },
    {
      "inputs": [
        {
          "internalType": "uint256",
          "name": "tokenId",
          "type": "uint256"
        }
      ],
      "name": "ownerOf",
      "outputs": [
        {
          "internalType": "address",
          "name": "",
          "type": "address"
        }
      ],
      "stateMutability": "view",
      "type": "function"
    },
    {
      "inputs": [
        {
          "internalType": "uint256",
          "name": "tokenId",
          "type": "uint256"
        },
        {
          "internalType": "uint256",
          "name": "price",
          "type": "uint256"
        }
      ],
      "name": "resellToken",
      "outputs": [],
      "stateMutability": "nonpayable",
      "type": "function"
    },
    {
      "inputs": [
        {
          "internalType": "address",
          "name": "from",
          "type": "address"
        },
        {
          "internalType": "address",
          "name": "to",
          "type": "address"
        },
        {
          "internalType": "uint256",
          "name": "tokenId",
          "type": "uint256"
        }
      ],
      "name": "safeTransferFrom",
      "outputs": [],
      "stateMutability": "nonpayable",
      "type": "function"
    },
    {
      "inputs": [
        {
          "internalType": "address",
          "name": "from",
          "type": "address"
        },
        {
          "internalType": "address",
          "name": "to",
          "type": "address"
        },
        {
          "internalType": "uint256",
          "name": "tokenId",
          "type": "uint256"
        },
        {
          "internalType": "bytes",
          "name": "data",
          "type": "bytes"
        }
      ],
      "name": "safeTransferFrom",
      "outputs": [],
      "stateMutability": "nonpayable",
      "type": "function"
    },
    {
      "inputs": [
        {
          "internalType": "address",
          "name": "operator",
          "type": "address"
        },
        {
          "internalType": "bool",
          "name": "approved",
          "type": "bool"
        }
      ],
      "name": "setApprovalForAll",
      "outputs": [],
      "stateMutability": "nonpayable",
      "type": "function"
    },
    {
      "inputs": [
        {
          "internalType": "bytes4",
          "name": "interfaceId",
          "type": "bytes4"
        }
      ],
      "name": "supportsInterface",
      "outputs": [
        {
          "internalType": "bool",
          "name": "",
          "type": "bool"
        }
      ],
      "stateMutability": "view",
      "type": "function"
    },
    {
      "inputs": [],
      "name": "symbol",
      "outputs": [
        {
          "internalType": "string",
          "name": "",
          "type": "string"
        }
      ],
      "stateMutability": "view",
      "type": "function"
    },
    {
      "inputs": [
        {
          "internalType": "uint256",
          "name": "tokenId",
          "type": "uint256"
        }
      ],
      "name": "tokenURI",
      "outputs": [
        {
          "internalType": "string",
          "name": "",
          "type": "string"
        }
      ],
      "stateMutability": "view",
      "type": "function"
    },
    {
      "inputs": [
        {
          "internalType": "address",
          "name": "from",
          "type": "address"
        },
        {
          "internalType": "address",
          "name": "to",
          "type": "address"
        },
        {
          "internalType": "uint256",
          "name": "tokenId",
          "type": "uint256"
        }
      ],
      "name": "transferFrom",
      "outputs": [],
      "stateMutability": "nonpayable",
      "type": "function"
    },
    {
      "inputs": [
        {
          "internalType": "uint256",
          "name": "_listingPrice",
          "type": "uint256"
        }
      ],
      "name": "updateListingPrice",
      "outputs": [],
      "stateMutability": "payable",
      "type": "function"
    },
    {
      "inputs": [
        {
          "internalType": "uint256",
          "name": "tokenId",
          "type": "uint256"
        },
        {
          "internalType": "uint256",
          "name": "price",
          "type": "uint256"
        }
      ],
      "name": "updatePrice",
      "outputs": [],
      "stateMutability": "nonpayable",
      "type": "function"
    },
    {
      "inputs": [
        {
          "internalType": "uint256",
          "name": "tokenId",
          "type": "uint256"
        },
        {
          "internalType": "string",
          "name": "tokenURI",
          "type": "string"
        }
      ],
      "name": "updateTokenURI",
      "outputs": [],
      "stateMutability": "nonpayable",
      "type": "function"
    }
  ],
  "bytecode": "0x60806040526658d15e176280006009553480156200001c57600080fd5b506040518060400160405280600b81526020016a13919508189e4812185b9960aa1b8152506040518060400160405280600581526020016409c8ca884960db1b81525081600090816200007091906200013f565b5060016200007f82826200013f565b5050600a80546001600160a01b03191633179055506200020b565b634e487b7160e01b600052604160045260246000fd5b600181811c90821680620000c557607f821691505b602082108103620000e657634e487b7160e01b600052602260045260246000fd5b50919050565b601f8211156200013a57600081815260208120601f850160051c81016020861015620001155750805b601f850160051c820191505b81811015620001365782815560010162000121565b5050505b505050565b81516001600160401b038111156200015b576200015b6200009a565b62000173816200016c8454620000b0565b84620000ec565b602080601f831160018114620001ab5760008415620001925750858301515b600019600386901b1c1916600185901b17855562000136565b600085815260208120601f198616915b82811015620001dc57888601518255948401946001909101908401620001bb565b5085821015620001fb5787850151600019600388901b60f8161c191681555b5050505050600190811b01905550565b6128ff806200021b6000396000f3fe6080604052600436106101805760003560e01c80636352211e116100d6578063ae677aa31161007f578063c87b56dd11610059578063c87b56dd146103fc578063e219fc751461041c578063e985e9c51461043c57600080fd5b8063ae677aa3146103b6578063b88d4fde146103c9578063be9af536146103e957600080fd5b806382367b2d116100b057806382367b2d1461036157806395d89b4114610381578063a22cb4651461039657600080fd5b80636352211e1461030157806370a082311461032157806372b3b6201461034157600080fd5b806312e855851161013857806323b872dd1161011257806323b872dd146102ac57806342842e0e146102cc57806345f8fa80146102ec57600080fd5b806312e855851461025857806318e97fd114610277578063202e37401461029757600080fd5b8063081812fc11610169578063081812fc146101dc578063095ea7b3146102145780630f08efe01461023657600080fd5b806301ffc9a71461018557806306fdde03146101ba575b600080fd5b34801561019157600080fd5b506101a56101a0366004612222565b610485565b60405190151581526020015b60405180910390f35b3480156101c657600080fd5b506101cf610522565b6040516101b1919061228f565b3480156101e857600080fd5b506101fc6101f73660046122a2565b6105b4565b6040516001600160a01b0390911681526020016101b1565b34801561022057600080fd5b5061023461022f3660046122d7565b6105db565b005b34801561024257600080fd5b5061024b610711565b6040516101b19190612301565b34801561026457600080fd5b506009545b6040519081526020016101b1565b34801561028357600080fd5b5061023461029236600461245c565b610966565b3480156102a357600080fd5b5061024b6109f8565b3480156102b857600080fd5b506102346102c73660046124a3565b610c8a565b3480156102d857600080fd5b506102346102e73660046124a3565b610d01565b3480156102f857600080fd5b5061024b610d1c565b34801561030d57600080fd5b506101fc61031c3660046122a2565b610fae565b34801561032d57600080fd5b5061026961033c3660046124df565b611013565b34801561034d57600080fd5b5061026961035c3660046124fa565b6110ad565b34801561036d57600080fd5b5061023461037c36600461253f565b6110f0565b34801561038d57600080fd5b506101cf611172565b3480156103a257600080fd5b506102346103b1366004612561565b611181565b6102346103c43660046122a2565b611190565b3480156103d557600080fd5b506102346103e436600461259d565b611215565b6102346103f73660046122a2565b611293565b34801561040857600080fd5b506101cf6104173660046122a2565b6113ba565b34801561042857600080fd5b5061023461043736600461253f565b6114ca565b34801561044857600080fd5b506101a5610457366004612619565b6001600160a01b03918216600090815260056020908152604080832093909416825291909152205460ff1690565b60006001600160e01b031982167f80ac58cd0000000000000000000000000000000000000000000000000000000014806104e857506001600160e01b031982167f5b5e139f00000000000000000000000000000000000000000000000000000000145b8061051c57507f01ffc9a7000000000000000000000000000000000000000000000000000000006001600160e01b03198316145b92915050565b6060600080546105319061264c565b80601f016020809104026020016040519081016040528092919081815260200182805461055d9061264c565b80156105aa5780601f1061057f576101008083540402835291602001916105aa565b820191906000526020600020905b81548152906001019060200180831161058d57829003601f168201915b5050505050905090565b60006105bf826115a1565b506000908152600460205260409020546001600160a01b031690565b60006105e682610fae565b9050806001600160a01b0316836001600160a01b0316036106745760405162461bcd60e51b815260206004820152602160248201527f4552433732313a20617070726f76616c20746f2063757272656e74206f776e6560448201527f720000000000000000000000000000000000000000000000000000000000000060648201526084015b60405180910390fd5b336001600160a01b038216148061069057506106908133610457565b6107025760405162461bcd60e51b815260206004820152603d60248201527f4552433732313a20617070726f76652063616c6c6572206973206e6f7420746f60448201527f6b656e206f776e6572206f7220617070726f76656420666f7220616c6c000000606482015260840161066b565b61070c8383611608565b505050565b6060600061071e60075490565b9050600061072b60085490565b600754610738919061269c565b90506000808267ffffffffffffffff811115610756576107566123b0565b6040519080825280602002602001820160405280156107d457816020015b6107c16040518060c00160405280600081526020016060815260200160006001600160a01b0316815260200160006001600160a01b03168152602001600081526020016000151581525090565b8152602001906001900390816107745790505b50905060005b8481101561095d5730600b60006107f28460016126af565b81526020810191909152604001600020600301546001600160a01b03160361094b5760006108218260016126af565b90506000600b60008381526020019081526020016000209050806040518060c0016040529081600082015481526020016001820180546108609061264c565b80601f016020809104026020016040519081016040528092919081815260200182805461088c9061264c565b80156108d95780601f106108ae576101008083540402835291602001916108d9565b820191906000526020600020905b8154815290600101906020018083116108bc57829003601f168201915b505050918352505060028201546001600160a01b03908116602083015260038301541660408201526004820154606082015260059091015460ff1615156080909101528451859087908110610930576109306126c2565b60209081029190910101526109466001866126af565b945050505b80610955816126d8565b9150506107da565b50949350505050565b600a546001600160a01b031633146109d35760405162461bcd60e51b815260206004820152602a60248201527f4f6e6c79206974656d206f776e65722063616e20706572666f726d20746869736044820152691037b832b930ba34b7b760b11b606482015260840161066b565b6109dd8282611676565b6000828152600b6020526040902060010161070c828261273f565b60606000610a0560075490565b905060008060005b83811015610a675733600b6000610a258460016126af565b81526020810191909152604001600020600301546001600160a01b031603610a5557610a526001846126af565b92505b80610a5f816126d8565b915050610a0d565b5060008267ffffffffffffffff811115610a8357610a836123b0565b604051908082528060200260200182016040528015610b0157816020015b610aee6040518060c00160405280600081526020016060815260200160006001600160a01b0316815260200160006001600160a01b03168152602001600081526020016000151581525090565b815260200190600190039081610aa15790505b50905060005b8481101561095d5733600b6000610b1f8460016126af565b81526020810191909152604001600020600301546001600160a01b031603610c78576000610b4e8260016126af565b90506000600b60008381526020019081526020016000209050806040518060c001604052908160008201548152602001600182018054610b8d9061264c565b80601f0160208091040260200160405190810160405280929190818152602001828054610bb99061264c565b8015610c065780601f10610bdb57610100808354040283529160200191610c06565b820191906000526020600020905b815481529060010190602001808311610be957829003601f168201915b505050918352505060028201546001600160a01b03908116602083015260038301541660408201526004820154606082015260059091015460ff1615156080909101528451859087908110610c5d57610c5d6126c2565b6020908102919091010152610c736001866126af565b945050505b80610c82816126d8565b915050610b07565b610c943382611718565b610cf65760405162461bcd60e51b815260206004820152602d60248201527f4552433732313a2063616c6c6572206973206e6f7420746f6b656e206f776e6560448201526c1c881bdc88185c1c1c9bdd9959609a1b606482015260840161066b565b61070c838383611796565b61070c83838360405180602001604052806000815250611215565b60606000610d2960075490565b905060008060005b83811015610d8b5733600b6000610d498460016126af565b81526020810191909152604001600020600201546001600160a01b031603610d7957610d766001846126af565b92505b80610d83816126d8565b915050610d31565b5060008267ffffffffffffffff811115610da757610da76123b0565b604051908082528060200260200182016040528015610e2557816020015b610e126040518060c00160405280600081526020016060815260200160006001600160a01b0316815260200160006001600160a01b03168152602001600081526020016000151581525090565b815260200190600190039081610dc55790505b50905060005b8481101561095d5733600b6000610e438460016126af565b81526020810191909152604001600020600201546001600160a01b031603610f9c576000610e728260016126af565b90506000600b60008381526020019081526020016000209050806040518060c001604052908160008201548152602001600182018054610eb19061264c565b80601f0160208091040260200160405190810160405280929190818152602001828054610edd9061264c565b8015610f2a5780601f10610eff57610100808354040283529160200191610f2a565b820191906000526020600020905b815481529060010190602001808311610f0d57829003601f168201915b505050918352505060028201546001600160a01b03908116602083015260038301541660408201526004820154606082015260059091015460ff1615156080909101528451859087908110610f8157610f816126c2565b6020908102919091010152610f976001866126af565b945050505b80610fa6816126d8565b915050610e2b565b6000818152600260205260408120546001600160a01b03168061051c5760405162461bcd60e51b815260206004820152601860248201527f4552433732313a20696e76616c696420746f6b656e2049440000000000000000604482015260640161066b565b60006001600160a01b0382166110915760405162461bcd60e51b815260206004820152602960248201527f4552433732313a2061646472657373207a65726f206973206e6f74206120766160448201527f6c6964206f776e65720000000000000000000000000000000000000000000000606482015260840161066b565b506001600160a01b031660009081526003602052604090205490565b60006110bd600780546001019055565b60006110c860075490565b90506110d4338261199c565b6110de8185611676565b6110e9818585611b35565b9392505050565b600a546001600160a01b0316331461115d5760405162461bcd60e51b815260206004820152602a60248201527f4f6e6c79206974656d206f776e65722063616e20706572666f726d20746869736044820152691037b832b930ba34b7b760b11b606482015260840161066b565b6000918252600b602052604090912060040155565b6060600180546105319061264c565b61118c338383611c8a565b5050565b600a546001600160a01b031633146112105760405162461bcd60e51b815260206004820152603060248201527f4f6e6c79206d61726b6574706c616365206f776e65722063616e20757064617460448201527f65206c697374696e672070726963652e00000000000000000000000000000000606482015260840161066b565b600955565b61121f3383611718565b6112815760405162461bcd60e51b815260206004820152602d60248201527f4552433732313a2063616c6c6572206973206e6f7420746f6b656e206f776e6560448201526c1c881bdc88185c1c1c9bdd9959609a1b606482015260840161066b565b61128d84848484611d58565b50505050565b6000818152600b6020526040902060048101546002909101546001600160a01b031634821461132c576040805162461bcd60e51b81526020600482015260248101919091527f506c65617365207375626d6974207468652061736b696e67207072696365206960448201527f6e206f7264657220746f20636f6d706c65746520746865207075726368617365606482015260840161066b565b6000838152600b602052604090206003810180546001600160a01b0319908116331790915560058201805460ff1916600117905560029091018054909116905561137a600880546001019055565b611385303385611796565b6040516001600160a01b038216903480156108fc02916000818181858888f1935050505015801561128d573d6000803e3d6000fd5b60606113c5826115a1565b600082815260066020526040812080546113de9061264c565b80601f016020809104026020016040519081016040528092919081815260200182805461140a9061264c565b80156114575780601f1061142c57610100808354040283529160200191611457565b820191906000526020600020905b81548152906001019060200180831161143a57829003601f168201915b50505050509050600061147560408051602081019091526000815290565b90508051600003611487575092915050565b8151156114b95780826040516020016114a19291906127ff565b60405160208183030381529060405292505050919050565b6114c284611de1565b949350505050565b6000828152600b60205260409020600301546001600160a01b031633146115465760405162461bcd60e51b815260206004820152602a60248201527f4f6e6c79206974656d206f776e65722063616e20706572666f726d20746869736044820152691037b832b930ba34b7b760b11b606482015260840161066b565b6000828152600b6020526040902060058101805460ff19169055600481018290556002810180546001600160a01b0319908116331790915560039091018054909116301790556115966008611e54565b61118c333084611796565b6000818152600260205260409020546001600160a01b03166116055760405162461bcd60e51b815260206004820152601860248201527f4552433732313a20696e76616c696420746f6b656e2049440000000000000000604482015260640161066b565b50565b600081815260046020526040902080546001600160a01b0319166001600160a01b038416908117909155819061163d82610fae565b6001600160a01b03167f8c5be1e5ebec7d5bd14f71427d1e84f3dd0314c0f7b2291e5b200ac8c7c3b92560405160405180910390a45050565b6000828152600260205260409020546001600160a01b03166117005760405162461bcd60e51b815260206004820152602e60248201527f45524337323155524953746f726167653a2055524920736574206f66206e6f6e60448201527f6578697374656e7420746f6b656e000000000000000000000000000000000000606482015260840161066b565b600082815260066020526040902061070c828261273f565b60008061172483610fae565b9050806001600160a01b0316846001600160a01b0316148061176b57506001600160a01b0380821660009081526005602090815260408083209388168352929052205460ff165b806114c25750836001600160a01b0316611784846105b4565b6001600160a01b031614949350505050565b826001600160a01b03166117a982610fae565b6001600160a01b03161461180d5760405162461bcd60e51b815260206004820152602560248201527f4552433732313a207472616e736665722066726f6d20696e636f72726563742060448201526437bbb732b960d91b606482015260840161066b565b6001600160a01b0382166118885760405162461bcd60e51b8152602060048201526024808201527f4552433732313a207472616e7366657220746f20746865207a65726f2061646460448201527f7265737300000000000000000000000000000000000000000000000000000000606482015260840161066b565b6118958383836001611eab565b826001600160a01b03166118a882610fae565b6001600160a01b03161461190c5760405162461bcd60e51b815260206004820152602560248201527f4552433732313a207472616e736665722066726f6d20696e636f72726563742060448201526437bbb732b960d91b606482015260840161066b565b600081815260046020908152604080832080546001600160a01b03199081169091556001600160a01b0387811680865260038552838620805460001901905590871680865283862080546001019055868652600290945282852080549092168417909155905184937fddf252ad1be2c89b69c2b068fc378daa952ba7f163c4a11628f55a4df523b3ef91a4505050565b6001600160a01b0382166119f25760405162461bcd60e51b815260206004820181905260248201527f4552433732313a206d696e7420746f20746865207a65726f2061646472657373604482015260640161066b565b6000818152600260205260409020546001600160a01b031615611a575760405162461bcd60e51b815260206004820152601c60248201527f4552433732313a20746f6b656e20616c7265616479206d696e74656400000000604482015260640161066b565b611a65600083836001611eab565b6000818152600260205260409020546001600160a01b031615611aca5760405162461bcd60e51b815260206004820152601c60248201527f4552433732313a20746f6b656e20616c7265616479206d696e74656400000000604482015260640161066b565b6001600160a01b038216600081815260036020908152604080832080546001019055848352600290915280822080546001600160a01b0319168417905551839291907fddf252ad1be2c89b69c2b068fc378daa952ba7f163c4a11628f55a4df523b3ef908290a45050565b60008111611b855760405162461bcd60e51b815260206004820152601c60248201527f5072696365206d757374206265206174206c6561737420312077656900000000604482015260640161066b565b6040805160c0810182528481526020808201858152338385015230606084015260808301859052600060a08401819052878152600b9092529290208151815591519091906001820190611bd8908261273f565b5060408201516002820180546001600160a01b039283166001600160a01b03199182161790915560608401516003840180549190931691161790556080820151600482015560a0909101516005909101805491151560ff19909216919091179055611c44333085611796565b827f83ca34d51193f8e4e6741bc3eb5c45078df1cd34040ae31f610e4a12211a2632833330856000604051611c7d95949392919061282e565b60405180910390a2505050565b816001600160a01b0316836001600160a01b031603611ceb5760405162461bcd60e51b815260206004820152601960248201527f4552433732313a20617070726f766520746f2063616c6c657200000000000000604482015260640161066b565b6001600160a01b03838116600081815260056020908152604080832094871680845294825291829020805460ff191686151590811790915591519182527f17307eab39ab6107e8899845ad3d59bd9653f200f220920489ca2b5937696c31910160405180910390a3505050565b611d63848484611796565b611d6f84848484611f33565b61128d5760405162461bcd60e51b815260206004820152603260248201527f4552433732313a207472616e7366657220746f206e6f6e20455243373231526560448201527f63656976657220696d706c656d656e7465720000000000000000000000000000606482015260840161066b565b6060611dec826115a1565b6000611e0360408051602081019091526000815290565b90506000815111611e2357604051806020016040528060008152506110e9565b80611e2d8461208a565b604051602001611e3e9291906127ff565b6040516020818303038152906040529392505050565b805480611ea35760405162461bcd60e51b815260206004820152601b60248201527f436f756e7465723a2064656372656d656e74206f766572666c6f770000000000604482015260640161066b565b600019019055565b600181111561128d576001600160a01b03841615611ef1576001600160a01b03841660009081526003602052604081208054839290611eeb90849061269c565b90915550505b6001600160a01b0383161561128d576001600160a01b03831660009081526003602052604081208054839290611f289084906126af565b909155505050505050565b60006001600160a01b0384163b1561207f57604051630a85bd0160e11b81526001600160a01b0385169063150b7a0290611f77903390899088908890600401612870565b6020604051808303816000875af1925050508015611fb2575060408051601f3d908101601f19168201909252611faf918101906128ac565b60015b612065573d808015611fe0576040519150601f19603f3d011682016040523d82523d6000602084013e611fe5565b606091505b50805160000361205d5760405162461bcd60e51b815260206004820152603260248201527f4552433732313a207472616e7366657220746f206e6f6e20455243373231526560448201527f63656976657220696d706c656d656e7465720000000000000000000000000000606482015260840161066b565b805181602001fd5b6001600160e01b031916630a85bd0160e11b1490506114c2565b506001949350505050565b606060006120978361212a565b600101905060008167ffffffffffffffff8111156120b7576120b76123b0565b6040519080825280601f01601f1916602001820160405280156120e1576020820181803683370190505b5090508181016020015b600019017f3031323334353637383961626364656600000000000000000000000000000000600a86061a8153600a85049450846120eb57509392505050565b6000807a184f03e93ff9f4daa797ed6e38ed64bf6a1f0100000000000000008310612173577a184f03e93ff9f4daa797ed6e38ed64bf6a1f010000000000000000830492506040015b6d04ee2d6d415b85acef8100000000831061219f576d04ee2d6d415b85acef8100000000830492506020015b662386f26fc1000083106121bd57662386f26fc10000830492506010015b6305f5e10083106121d5576305f5e100830492506008015b61271083106121e957612710830492506004015b606483106121fb576064830492506002015b600a831061051c5760010192915050565b6001600160e01b03198116811461160557600080fd5b60006020828403121561223457600080fd5b81356110e98161220c565b60005b8381101561225a578181015183820152602001612242565b50506000910152565b6000815180845261227b81602086016020860161223f565b601f01601f19169290920160200192915050565b6020815260006110e96020830184612263565b6000602082840312156122b457600080fd5b5035919050565b80356001600160a01b03811681146122d257600080fd5b919050565b600080604083850312156122ea57600080fd5b6122f3836122bb565b946020939093013593505050565b60006020808301818452808551808352604092508286019150828160051b87010184880160005b838110156123a257603f19898403018552815160c08151855288820151818a87015261235682870182612263565b838a01516001600160a01b03908116888c0152606080860151909116908801526080808501519088015260a0938401511515939096019290925250509386019390860190600101612328565b509098975050505050505050565b634e487b7160e01b600052604160045260246000fd5b600067ffffffffffffffff808411156123e1576123e16123b0565b604051601f8501601f19908116603f01168101908282118183101715612409576124096123b0565b8160405280935085815286868601111561242257600080fd5b858560208301376000602087830101525050509392505050565b600082601f83011261244d57600080fd5b6110e9838335602085016123c6565b6000806040838503121561246f57600080fd5b82359150602083013567ffffffffffffffff81111561248d57600080fd5b6124998582860161243c565b9150509250929050565b6000806000606084860312156124b857600080fd5b6124c1846122bb565b92506124cf602085016122bb565b9150604084013590509250925092565b6000602082840312156124f157600080fd5b6110e9826122bb565b6000806040838503121561250d57600080fd5b823567ffffffffffffffff81111561252457600080fd5b6125308582860161243c565b95602094909401359450505050565b6000806040838503121561255257600080fd5b50508035926020909101359150565b6000806040838503121561257457600080fd5b61257d836122bb565b91506020830135801515811461259257600080fd5b809150509250929050565b600080600080608085870312156125b357600080fd5b6125bc856122bb565b93506125ca602086016122bb565b925060408501359150606085013567ffffffffffffffff8111156125ed57600080fd5b8501601f810187136125fe57600080fd5b61260d878235602084016123c6565b91505092959194509250565b6000806040838503121561262c57600080fd5b612635836122bb565b9150612643602084016122bb565b90509250929050565b600181811c9082168061266057607f821691505b60208210810361268057634e487b7160e01b600052602260045260246000fd5b50919050565b634e487b7160e01b600052601160045260246000fd5b8181038181111561051c5761051c612686565b8082018082111561051c5761051c612686565b634e487b7160e01b600052603260045260246000fd5b6000600182016126ea576126ea612686565b5060010190565b601f82111561070c57600081815260208120601f850160051c810160208610156127185750805b601f850160051c820191505b8181101561273757828155600101612724565b505050505050565b815167ffffffffffffffff811115612759576127596123b0565b61276d81612767845461264c565b846126f1565b602080601f8311600181146127a2576000841561278a5750858301515b600019600386901b1c1916600185901b178555612737565b600085815260208120601f198616915b828110156127d1578886015182559484019460019091019084016127b2565b50858210156127ef5787850151600019600388901b60f8161c191681555b5050505050600190811b01905550565b6000835161281181846020880161223f565b83519083019061282581836020880161223f565b01949350505050565b60a08152600061284160a0830188612263565b6001600160a01b0396871660208401529490951660408201526060810192909252151560809091015292915050565b60006001600160a01b038087168352808616602084015250836040830152608060608301526128a26080830184612263565b9695505050505050565b6000602082840312156128be57600080fd5b81516110e98161220c56fea2646970667358221220461823dc8f6a32f7abab32194cf699a17ce7c67e450cf7333159f5b2b15a969064736f6c63430008110033",
  "linkReferences": {},
  "deployedLinkReferences": {}
}